{
  "contractName": "Mediator",
  "abi": [
    {
      "inputs": [
        {
          "internalType": "address",
          "name": "tokenAddress",
          "type": "address"
        }
      ],
      "stateMutability": "nonpayable",
      "type": "constructor"
    },
    {
      "inputs": [
        {
          "internalType": "uint256",
          "name": "",
          "type": "uint256"
        }
      ],
      "name": "jobs",
      "outputs": [
        {
          "internalType": "uint256",
          "name": "id",
          "type": "uint256"
        },
        {
          "internalType": "string",
          "name": "title",
          "type": "string"
        },
        {
          "internalType": "address",
          "name": "client",
          "type": "address"
        },
        {
          "internalType": "address",
          "name": "contractor",
          "type": "address"
        },
        {
          "internalType": "string",
          "name": "description",
          "type": "string"
        },
        {
          "internalType": "uint256",
          "name": "remuneration",
          "type": "uint256"
        }
      ],
      "stateMutability": "view",
      "type": "function",
      "constant": true
    },
    {
      "inputs": [],
      "name": "lastId",
      "outputs": [
        {
          "internalType": "uint256",
          "name": "",
          "type": "uint256"
        }
      ],
      "stateMutability": "view",
      "type": "function",
      "constant": true
    },
    {
      "inputs": [],
      "name": "token",
      "outputs": [
        {
          "internalType": "contract Token",
          "name": "",
          "type": "address"
        }
      ],
      "stateMutability": "view",
      "type": "function",
      "constant": true
    },
    {
      "inputs": [
        {
          "internalType": "string",
          "name": "description",
          "type": "string"
        },
        {
          "internalType": "uint256",
          "name": "remuneration",
          "type": "uint256"
        },
        {
          "internalType": "string",
          "name": "title",
          "type": "string"
        }
      ],
      "name": "createJob",
      "outputs": [
        {
          "components": [
            {
              "internalType": "uint256",
              "name": "id",
              "type": "uint256"
            },
            {
              "internalType": "string",
              "name": "title",
              "type": "string"
            },
            {
              "internalType": "address",
              "name": "client",
              "type": "address"
            },
            {
              "internalType": "address",
              "name": "contractor",
              "type": "address"
            },
            {
              "internalType": "string",
              "name": "description",
              "type": "string"
            },
            {
              "internalType": "uint256",
              "name": "remuneration",
              "type": "uint256"
            }
          ],
          "internalType": "struct Mediator.Job",
          "name": "",
          "type": "tuple"
        }
      ],
      "stateMutability": "nonpayable",
      "type": "function"
    },
    {
      "inputs": [
        {
          "internalType": "uint256",
          "name": "_id",
          "type": "uint256"
        }
      ],
      "name": "getJobById",
      "outputs": [
        {
          "components": [
            {
              "internalType": "uint256",
              "name": "id",
              "type": "uint256"
            },
            {
              "internalType": "string",
              "name": "title",
              "type": "string"
            },
            {
              "internalType": "address",
              "name": "client",
              "type": "address"
            },
            {
              "internalType": "address",
              "name": "contractor",
              "type": "address"
            },
            {
              "internalType": "string",
              "name": "description",
              "type": "string"
            },
            {
              "internalType": "uint256",
              "name": "remuneration",
              "type": "uint256"
            }
          ],
          "internalType": "struct Mediator.Job",
          "name": "",
          "type": "tuple"
        }
      ],
      "stateMutability": "view",
      "type": "function",
      "constant": true
    },
    {
      "inputs": [
        {
          "internalType": "uint256",
          "name": "_id",
          "type": "uint256"
        }
      ],
      "name": "applyJob",
      "outputs": [
        {
          "components": [
            {
              "internalType": "uint256",
              "name": "id",
              "type": "uint256"
            },
            {
              "internalType": "string",
              "name": "title",
              "type": "string"
            },
            {
              "internalType": "address",
              "name": "client",
              "type": "address"
            },
            {
              "internalType": "address",
              "name": "contractor",
              "type": "address"
            },
            {
              "internalType": "string",
              "name": "description",
              "type": "string"
            },
            {
              "internalType": "uint256",
              "name": "remuneration",
              "type": "uint256"
            }
          ],
          "internalType": "struct Mediator.Job",
          "name": "",
          "type": "tuple"
        }
      ],
      "stateMutability": "nonpayable",
      "type": "function"
    }
  ],
  "bytecode": "0x608060405260006002553480156200001657600080fd5b506040516200149c3803806200149c83398181016040528101906200003c9190620000ed565b806000806101000a81548173ffffffffffffffffffffffffffffffffffffffff021916908373ffffffffffffffffffffffffffffffffffffffff160217905550506200011f565b600080fd5b600073ffffffffffffffffffffffffffffffffffffffff82169050919050565b6000620000b58262000088565b9050919050565b620000c781620000a8565b8114620000d357600080fd5b50565b600081519050620000e781620000bc565b92915050565b60006020828403121562000106576200010562000083565b5b60006200011684828501620000d6565b91505092915050565b61136d806200012f6000396000f3fe608060405234801561001057600080fd5b50600436106100625760003560e01c8063180aedf31461006757806319eb5ae41461009c5780632ad6ee43146100cc57806369d7428f146100fc578063c1292cc31461012c578063fc0c546a1461014a575b600080fd5b610081600480360381019061007c9190610d5d565b610168565b60405161009396959493929190610e73565b60405180910390f35b6100b660048036038101906100b19190611017565b6102f4565b6040516100c3919061119a565b60405180910390f35b6100e660048036038101906100e19190610d5d565b610465565b6040516100f3919061119a565b60405180910390f35b61011660048036038101906101119190610d5d565b6109a8565b604051610123919061119a565b60405180910390f35b610134610bb9565b60405161014191906111bc565b60405180910390f35b610152610bbf565b60405161015f9190611236565b60405180910390f35b600160205280600052604060002060009150905080600001549080600101805461019190611280565b80601f01602080910402602001604051908101604052809291908181526020018280546101bd90611280565b801561020a5780601f106101df5761010080835404028352916020019161020a565b820191906000526020600020905b8154815290600101906020018083116101ed57829003601f168201915b5050505050908060020160009054906101000a900473ffffffffffffffffffffffffffffffffffffffff16908060030160009054906101000a900473ffffffffffffffffffffffffffffffffffffffff169080600401805461026b90611280565b80601f016020809104026020016040519081016040528092919081815260200182805461029790611280565b80156102e45780601f106102b9576101008083540402835291602001916102e4565b820191906000526020600020905b8154815290600101906020018083116102c757829003601f168201915b5050505050908060050154905086565b6102fc610c0e565b6000610306610be3565b905060006040518060c00160405280600181526020018581526020013373ffffffffffffffffffffffffffffffffffffffff1681526020013373ffffffffffffffffffffffffffffffffffffffff16815260200187815260200186815250905080600160008481526020019081526020016000206000820151816000015560208201518160010190805190602001906103a0929190610c70565b5060408201518160020160006101000a81548173ffffffffffffffffffffffffffffffffffffffff021916908373ffffffffffffffffffffffffffffffffffffffff16021790555060608201518160030160006101000a81548173ffffffffffffffffffffffffffffffffffffffff021916908373ffffffffffffffffffffffffffffffffffffffff160217905550608082015181600401908051906020019061044b929190610c70565b5060a0820151816005015590505080925050509392505050565b61046d610c0e565b6000600160008481526020019081526020016000206040518060c0016040529081600082015481526020016001820180546104a790611280565b80601f01602080910402602001604051908101604052809291908181526020018280546104d390611280565b80156105205780601f106104f557610100808354040283529160200191610520565b820191906000526020600020905b81548152906001019060200180831161050357829003601f168201915b505050505081526020016002820160009054906101000a900473ffffffffffffffffffffffffffffffffffffffff1673ffffffffffffffffffffffffffffffffffffffff1673ffffffffffffffffffffffffffffffffffffffff1681526020016003820160009054906101000a900473ffffffffffffffffffffffffffffffffffffffff1673ffffffffffffffffffffffffffffffffffffffff1673ffffffffffffffffffffffffffffffffffffffff1681526020016004820180546105e590611280565b80601f016020809104026020016040519081016040528092919081815260200182805461061190611280565b801561065e5780601f106106335761010080835404028352916020019161065e565b820191906000526020600020905b81548152906001019060200180831161064157829003601f168201915b50505050508152602001600582015481525050905033816060019073ffffffffffffffffffffffffffffffffffffffff16908173ffffffffffffffffffffffffffffffffffffffff168152505080600160008581526020019081526020016000206000820151816000015560208201518160010190805190602001906106e5929190610c70565b5060408201518160020160006101000a81548173ffffffffffffffffffffffffffffffffffffffff021916908373ffffffffffffffffffffffffffffffffffffffff16021790555060608201518160030160006101000a81548173ffffffffffffffffffffffffffffffffffffffff021916908373ffffffffffffffffffffffffffffffffffffffff1602179055506080820151816004019080519060200190610790929190610c70565b5060a08201518160050155905050600160008481526020019081526020016000206040518060c0016040529081600082015481526020016001820180546107d690611280565b80601f016020809104026020016040519081016040528092919081815260200182805461080290611280565b801561084f5780601f106108245761010080835404028352916020019161084f565b820191906000526020600020905b81548152906001019060200180831161083257829003601f168201915b505050505081526020016002820160009054906101000a900473ffffffffffffffffffffffffffffffffffffffff1673ffffffffffffffffffffffffffffffffffffffff1673ffffffffffffffffffffffffffffffffffffffff1681526020016003820160009054906101000a900473ffffffffffffffffffffffffffffffffffffffff1673ffffffffffffffffffffffffffffffffffffffff1673ffffffffffffffffffffffffffffffffffffffff16815260200160048201805461091490611280565b80601f016020809104026020016040519081016040528092919081815260200182805461094090611280565b801561098d5780601f106109625761010080835404028352916020019161098d565b820191906000526020600020905b81548152906001019060200180831161097057829003601f168201915b50505050508152602001600582015481525050915050919050565b6109b0610c0e565b600160008381526020019081526020016000206040518060c0016040529081600082015481526020016001820180546109e890611280565b80601f0160208091040260200160405190810160405280929190818152602001828054610a1490611280565b8015610a615780601f10610a3657610100808354040283529160200191610a61565b820191906000526020600020905b815481529060010190602001808311610a4457829003601f168201915b505050505081526020016002820160009054906101000a900473ffffffffffffffffffffffffffffffffffffffff1673ffffffffffffffffffffffffffffffffffffffff1673ffffffffffffffffffffffffffffffffffffffff1681526020016003820160009054906101000a900473ffffffffffffffffffffffffffffffffffffffff1673ffffffffffffffffffffffffffffffffffffffff1673ffffffffffffffffffffffffffffffffffffffff168152602001600482018054610b2690611280565b80601f0160208091040260200160405190810160405280929190818152602001828054610b5290611280565b8015610b9f5780601f10610b7457610100808354040283529160200191610b9f565b820191906000526020600020905b815481529060010190602001808311610b8257829003601f168201915b505050505081526020016005820154815250509050919050565b60025481565b60008054906101000a900473ffffffffffffffffffffffffffffffffffffffff1681565b60006001600254610bf491906112e1565b6002819055506001600254610c0991906112e1565b905090565b6040518060c001604052806000815260200160608152602001600073ffffffffffffffffffffffffffffffffffffffff168152602001600073ffffffffffffffffffffffffffffffffffffffff16815260200160608152602001600081525090565b828054610c7c90611280565b90600052602060002090601f016020900481019282610c9e5760008555610ce5565b82601f10610cb757805160ff1916838001178555610ce5565b82800160010185558215610ce5579182015b82811115610ce4578251825591602001919060010190610cc9565b5b509050610cf29190610cf6565b5090565b5b80821115610d0f576000816000905550600101610cf7565b5090565b6000604051905090565b600080fd5b600080fd5b6000819050919050565b610d3a81610d27565b8114610d4557600080fd5b50565b600081359050610d5781610d31565b92915050565b600060208284031215610d7357610d72610d1d565b5b6000610d8184828501610d48565b91505092915050565b610d9381610d27565b82525050565b600081519050919050565b600082825260208201905092915050565b60005b83811015610dd3578082015181840152602081019050610db8565b83811115610de2576000848401525b50505050565b6000601f19601f8301169050919050565b6000610e0482610d99565b610e0e8185610da4565b9350610e1e818560208601610db5565b610e2781610de8565b840191505092915050565b600073ffffffffffffffffffffffffffffffffffffffff82169050919050565b6000610e5d82610e32565b9050919050565b610e6d81610e52565b82525050565b600060c082019050610e886000830189610d8a565b8181036020830152610e9a8188610df9565b9050610ea96040830187610e64565b610eb66060830186610e64565b8181036080830152610ec88185610df9565b9050610ed760a0830184610d8a565b979650505050505050565b600080fd5b600080fd5b7f4e487b7100000000000000000000000000000000000000000000000000000000600052604160045260246000fd5b610f2482610de8565b810181811067ffffffffffffffff82111715610f4357610f42610eec565b5b80604052505050565b6000610f56610d13565b9050610f628282610f1b565b919050565b600067ffffffffffffffff821115610f8257610f81610eec565b5b610f8b82610de8565b9050602081019050919050565b82818337600083830152505050565b6000610fba610fb584610f67565b610f4c565b905082815260208101848484011115610fd657610fd5610ee7565b5b610fe1848285610f98565b509392505050565b600082601f830112610ffe57610ffd610ee2565b5b813561100e848260208601610fa7565b91505092915050565b6000806000606084860312156110305761102f610d1d565b5b600084013567ffffffffffffffff81111561104e5761104d610d22565b5b61105a86828701610fe9565b935050602061106b86828701610d48565b925050604084013567ffffffffffffffff81111561108c5761108b610d22565b5b61109886828701610fe9565b9150509250925092565b6110ab81610d27565b82525050565b600082825260208201905092915050565b60006110cd82610d99565b6110d781856110b1565b93506110e7818560208601610db5565b6110f081610de8565b840191505092915050565b61110481610e52565b82525050565b600060c08301600083015161112260008601826110a2565b506020830151848203602086015261113a82826110c2565b915050604083015161114f60408601826110fb565b50606083015161116260608601826110fb565b506080830151848203608086015261117a82826110c2565b91505060a083015161118f60a08601826110a2565b508091505092915050565b600060208201905081810360008301526111b4818461110a565b905092915050565b60006020820190506111d16000830184610d8a565b92915050565b6000819050919050565b60006111fc6111f76111f284610e32565b6111d7565b610e32565b9050919050565b600061120e826111e1565b9050919050565b600061122082611203565b9050919050565b61123081611215565b82525050565b600060208201905061124b6000830184611227565b92915050565b7f4e487b7100000000000000000000000000000000000000000000000000000000600052602260045260246000fd5b6000600282049050600182168061129857607f821691505b602082108114156112ac576112ab611251565b5b50919050565b7f4e487b7100000000000000000000000000000000000000000000000000000000600052601160045260246000fd5b60006112ec82610d27565b91506112f783610d27565b9250827fffffffffffffffffffffffffffffffffffffffffffffffffffffffffffffffff0382111561132c5761132b6112b2565b5b82820190509291505056fea2646970667358221220c24e3e8836046db6bff0232b42fc7162113a637f34bef1fe566243fd07a6124464736f6c634300080b0033",
  "immutableReferences": {},
  "source": "// SPDX-License-Identifier: MIT\r\npragma solidity >=0.4.22 <0.9.0;\r\nimport \"./Token.sol\";\r\ncontract Mediator {\r\n    Token public token;\r\n    mapping(uint256 => Job) public jobs;\r\n    uint256 public lastId = 0;\r\n\r\n    constructor(address tokenAddress) {\r\n    token = Token(tokenAddress);\r\n    }\r\n\r\n     struct Job {\r\n        uint256 id;\r\n        string title;\r\n        address client;\r\n        address contractor;\r\n        string description;\r\n        uint256 remuneration;\r\n    }\r\n\r\n    function createId() private returns (uint256){\r\n        lastId = lastId +1;\r\n        return lastId +1;\r\n    }\r\n\r\n    function createJob(string memory description, uint256 remuneration, string memory title) public returns(Job memory){\r\n        uint256 _id = createId();\r\n        Job memory newJob = Job(1, title, msg.sender, msg.sender, description,remuneration);\r\n        jobs[_id]= newJob;\r\n        return newJob;\r\n    }\r\n\r\n    function getJobById(uint256 _id) public view returns(Job memory){\r\n        return jobs[_id];\r\n    }\r\n\r\n    function applyJob(uint256 _id) public returns(Job memory){\r\n        Job memory job = jobs[_id];\r\n        job.contractor = msg.sender;\r\n        jobs[_id]= job;\r\n        return jobs[_id];\r\n    }\r\n\r\n}",
  "sourcePath": "C:\\dev\\thesis\\Example_Token_Ecosystem\\contracts\\Mediator.sol",
  "compiler": {
    "name": "solc",
    "version": "0.8.11+commit.d7f03943.Emscripten.clang"
  },
  "schemaVersion": "3.4.4",
  "updatedAt": "2022-09-05T12:38:06.512Z",
  "networkType": "ethereum",
  "devdoc": {
    "kind": "dev",
    "methods": {},
    "version": 1
  },
  "userdoc": {
    "kind": "user",
    "methods": {},
    "version": 1
  }
}