{
  "contractName": "Vendor",
  "abi": [
    {
      "inputs": [
        {
          "internalType": "address",
          "name": "tokenAddress",
          "type": "address"
        }
      ],
      "stateMutability": "nonpayable",
      "type": "constructor"
    },
    {
      "anonymous": false,
      "inputs": [
        {
          "indexed": false,
          "internalType": "address",
          "name": "buyer",
          "type": "address"
        },
        {
          "indexed": false,
          "internalType": "uint256",
          "name": "amountOfETH",
          "type": "uint256"
        },
        {
          "indexed": false,
          "internalType": "uint256",
          "name": "amountOfTokens",
          "type": "uint256"
        }
      ],
      "name": "BuyTokens",
      "type": "event"
    },
    {
      "anonymous": false,
      "inputs": [
        {
          "indexed": true,
          "internalType": "address",
          "name": "previousOwner",
          "type": "address"
        },
        {
          "indexed": true,
          "internalType": "address",
          "name": "newOwner",
          "type": "address"
        }
      ],
      "name": "OwnershipTransferred",
      "type": "event"
    },
    {
      "inputs": [],
      "name": "owner",
      "outputs": [
        {
          "internalType": "address",
          "name": "",
          "type": "address"
        }
      ],
      "stateMutability": "view",
      "type": "function",
      "constant": true
    },
    {
      "inputs": [],
      "name": "rate",
      "outputs": [
        {
          "internalType": "uint256",
          "name": "",
          "type": "uint256"
        }
      ],
      "stateMutability": "view",
      "type": "function",
      "constant": true
    },
    {
      "inputs": [],
      "name": "renounceOwnership",
      "outputs": [],
      "stateMutability": "nonpayable",
      "type": "function"
    },
    {
      "inputs": [],
      "name": "token",
      "outputs": [
        {
          "internalType": "contract Token",
          "name": "",
          "type": "address"
        }
      ],
      "stateMutability": "view",
      "type": "function",
      "constant": true
    },
    {
      "inputs": [
        {
          "internalType": "address",
          "name": "newOwner",
          "type": "address"
        }
      ],
      "name": "transferOwnership",
      "outputs": [],
      "stateMutability": "nonpayable",
      "type": "function"
    },
    {
      "stateMutability": "payable",
      "type": "receive",
      "payable": true
    },
    {
      "inputs": [],
      "name": "buyTokens",
      "outputs": [],
      "stateMutability": "payable",
      "type": "function",
      "payable": true
    },
    {
      "inputs": [],
      "name": "withdraw",
      "outputs": [],
      "stateMutability": "nonpayable",
      "type": "function"
    }
  ],
  "bytecode": "0x608060405234801561001057600080fd5b50604051610d76380380610d76833981810160405281019061003291906101c4565b61004e61004361009560201b60201c565b61009d60201b60201c565b80600160006101000a81548173ffffffffffffffffffffffffffffffffffffffff021916908373ffffffffffffffffffffffffffffffffffffffff160217905550506101f1565b600033905090565b60008060009054906101000a900473ffffffffffffffffffffffffffffffffffffffff169050816000806101000a81548173ffffffffffffffffffffffffffffffffffffffff021916908373ffffffffffffffffffffffffffffffffffffffff1602179055508173ffffffffffffffffffffffffffffffffffffffff168173ffffffffffffffffffffffffffffffffffffffff167f8be0079c531659141344cd1fd0a4f28419497f9722a3daafe3b4186f6b6457e060405160405180910390a35050565b600080fd5b600073ffffffffffffffffffffffffffffffffffffffff82169050919050565b600061019182610166565b9050919050565b6101a181610186565b81146101ac57600080fd5b50565b6000815190506101be81610198565b92915050565b6000602082840312156101da576101d9610161565b5b60006101e8848285016101af565b91505092915050565b610b76806102006000396000f3fe6080604052600436106100745760003560e01c80638da5cb5b1161004e5780638da5cb5b146100d9578063d0febe4c14610104578063f2fde38b1461010e578063fc0c546a146101375761007b565b80632c4e722e146100805780633ccfd60b146100ab578063715018a6146100c25761007b565b3661007b57005b600080fd5b34801561008c57600080fd5b50610095610162565b6040516100a291906105e4565b60405180910390f35b3480156100b757600080fd5b506100c0610167565b005b3480156100ce57600080fd5b506100d7610267565b005b3480156100e557600080fd5b506100ee61027b565b6040516100fb9190610640565b60405180910390f35b61010c6102a4565b005b34801561011a57600080fd5b506101356004803603810190610130919061068c565b6103d7565b005b34801561014357600080fd5b5061014c61045b565b6040516101599190610718565b60405180910390f35b606481565b61016f610481565b6000479050600081116101b7576040517f08c379a00000000000000000000000000000000000000000000000000000000081526004016101ae906107b6565b60405180910390fd5b60003373ffffffffffffffffffffffffffffffffffffffff16826040516101dd90610807565b60006040518083038185875af1925050503d806000811461021a576040519150601f19603f3d011682016040523d82523d6000602084013e61021f565b606091505b5050905080610263576040517f08c379a000000000000000000000000000000000000000000000000000000000815260040161025a90610868565b60405180910390fd5b5050565b61026f610481565b61027960006104ff565b565b60008060009054906101000a900473ffffffffffffffffffffffffffffffffffffffff16905090565b600034116102e7576040517f08c379a00000000000000000000000000000000000000000000000000000000081526004016102de906108d4565b60405180910390fd5b60006064346102f69190610923565b9050600160009054906101000a900473ffffffffffffffffffffffffffffffffffffffff1673ffffffffffffffffffffffffffffffffffffffff1663a9059cbb33836040518363ffffffff1660e01b815260040161035592919061097d565b6020604051808303816000875af1158015610374573d6000803e3d6000fd5b505050506040513d601f19601f8201168201806040525081019061039891906109de565b507f0a37b72bb67eee30e09084cf386f8a17817c57f620c3ab95fb25d6a20356ec773334836040516103cc93929190610a0b565b60405180910390a150565b6103df610481565b600073ffffffffffffffffffffffffffffffffffffffff168173ffffffffffffffffffffffffffffffffffffffff16141561044f576040517f08c379a000000000000000000000000000000000000000000000000000000000815260040161044690610ab4565b60405180910390fd5b610458816104ff565b50565b600160009054906101000a900473ffffffffffffffffffffffffffffffffffffffff1681565b6104896105c3565b73ffffffffffffffffffffffffffffffffffffffff166104a761027b565b73ffffffffffffffffffffffffffffffffffffffff16146104fd576040517f08c379a00000000000000000000000000000000000000000000000000000000081526004016104f490610b20565b60405180910390fd5b565b60008060009054906101000a900473ffffffffffffffffffffffffffffffffffffffff169050816000806101000a81548173ffffffffffffffffffffffffffffffffffffffff021916908373ffffffffffffffffffffffffffffffffffffffff1602179055508173ffffffffffffffffffffffffffffffffffffffff168173ffffffffffffffffffffffffffffffffffffffff167f8be0079c531659141344cd1fd0a4f28419497f9722a3daafe3b4186f6b6457e060405160405180910390a35050565b600033905090565b6000819050919050565b6105de816105cb565b82525050565b60006020820190506105f960008301846105d5565b92915050565b600073ffffffffffffffffffffffffffffffffffffffff82169050919050565b600061062a826105ff565b9050919050565b61063a8161061f565b82525050565b60006020820190506106556000830184610631565b92915050565b600080fd5b6106698161061f565b811461067457600080fd5b50565b60008135905061068681610660565b92915050565b6000602082840312156106a2576106a161065b565b5b60006106b084828501610677565b91505092915050565b6000819050919050565b60006106de6106d96106d4846105ff565b6106b9565b6105ff565b9050919050565b60006106f0826106c3565b9050919050565b6000610702826106e5565b9050919050565b610712816106f7565b82525050565b600060208201905061072d6000830184610709565b92915050565b600082825260208201905092915050565b7f4f776e65722f436f6e747261637420686173206e6f2062616c616e636520746f60008201527f2077697468647261770000000000000000000000000000000000000000000000602082015250565b60006107a0602983610733565b91506107ab82610744565b604082019050919050565b600060208201905081810360008301526107cf81610793565b9050919050565b600081905092915050565b50565b60006107f16000836107d6565b91506107fc826107e1565b600082019050919050565b6000610812826107e4565b9150819050919050565b7f4661696c656420746f2073656e642062616c616e636500000000000000000000600082015250565b6000610852601683610733565b915061085d8261081c565b602082019050919050565b6000602082019050818103600083015261088181610845565b9050919050565b7f6e6f7420656e6f756768742045544820746f2062757920746f6b656e73000000600082015250565b60006108be601d83610733565b91506108c982610888565b602082019050919050565b600060208201905081810360008301526108ed816108b1565b9050919050565b7f4e487b7100000000000000000000000000000000000000000000000000000000600052601160045260246000fd5b600061092e826105cb565b9150610939836105cb565b9250817fffffffffffffffffffffffffffffffffffffffffffffffffffffffffffffffff0483118215151615610972576109716108f4565b5b828202905092915050565b60006040820190506109926000830185610631565b61099f60208301846105d5565b9392505050565b60008115159050919050565b6109bb816109a6565b81146109c657600080fd5b50565b6000815190506109d8816109b2565b92915050565b6000602082840312156109f4576109f361065b565b5b6000610a02848285016109c9565b91505092915050565b6000606082019050610a206000830186610631565b610a2d60208301856105d5565b610a3a60408301846105d5565b949350505050565b7f4f776e61626c653a206e6577206f776e657220697320746865207a65726f206160008201527f6464726573730000000000000000000000000000000000000000000000000000602082015250565b6000610a9e602683610733565b9150610aa982610a42565b604082019050919050565b60006020820190508181036000830152610acd81610a91565b9050919050565b7f4f776e61626c653a2063616c6c6572206973206e6f7420746865206f776e6572600082015250565b6000610b0a602083610733565b9150610b1582610ad4565b602082019050919050565b60006020820190508181036000830152610b3981610afd565b905091905056fea2646970667358221220784b41f3a6b4b4684ab428238a49075e391774dc84660e82a02d8a994263229a64736f6c634300080b0033",
  "immutableReferences": {},
  "source": "// SPDX-License-Identifier: MIT\r\npragma solidity >=0.4.22 <0.9.0;\r\nimport \"../node_modules/@openzeppelin/contracts/access/Ownable.sol\";\r\nimport \"./Token.sol\";\r\n\r\ncontract Vendor is Ownable {\r\n    Token public token;\r\n    uint256 public constant rate = 100;\r\n\r\n\r\n    constructor(address tokenAddress) {\r\n    token = Token(tokenAddress);\r\n    }\r\n    \r\n    event BuyTokens(address buyer, uint256 amountOfETH, uint256 amountOfTokens);\r\n\r\n    // @notice Will receive any eth sent to the contract\r\n    receive() external payable { }\r\n\r\n    function buyTokens() public payable {\r\n        require(msg.value > 0, 'not enought ETH to buy tokens');\r\n        uint amountToTransfer = msg.value * rate;\r\n        token.transfer(msg.sender, amountToTransfer);\r\n        emit BuyTokens(msg.sender,msg.value, amountToTransfer);\r\n    }  \r\n    \r\n    function withdraw() public onlyOwner{\r\n        uint256 ownerBalance = address(this).balance;\r\n        require(ownerBalance > 0, 'Owner/Contract has no balance to withdraw');\r\n        (bool sent,)= msg.sender.call{value: ownerBalance}(\"\");\r\n        require(sent, \"Failed to send balance\");\r\n    }\r\n}",
  "sourcePath": "C:\\dev\\thesis\\Example_Token_Ecosystem\\contracts\\Vendor.sol",
  "compiler": {
    "name": "solc",
    "version": "0.8.11+commit.d7f03943.Emscripten.clang"
  },
  "schemaVersion": "3.4.4",
  "updatedAt": "2022-09-05T12:38:06.507Z",
  "networkType": "ethereum",
  "devdoc": {
    "kind": "dev",
    "methods": {
      "owner()": {
        "details": "Returns the address of the current owner."
      },
      "renounceOwnership()": {
        "details": "Leaves the contract without owner. It will not be possible to call `onlyOwner` functions anymore. Can only be called by the current owner. NOTE: Renouncing ownership will leave the contract without an owner, thereby removing any functionality that is only available to the owner."
      },
      "transferOwnership(address)": {
        "details": "Transfers ownership of the contract to a new account (`newOwner`). Can only be called by the current owner."
      }
    },
    "version": 1
  },
  "userdoc": {
    "kind": "user",
    "methods": {},
    "version": 1
  }
}